:020000040000FA
:0600000028EF0AF01200D7
:020006001200E6
:08000800F2A402D02BEF05F079
:100010009EA002D09CEF05F09EAA02D037EF00F020
:10002000A4AA02D09CEF00F01200D08EF28E120033
:10003000050040160000FC000000020000003F1612
:100040000000FD020000010000002F160000EC007F
:10005000000010000000A3150000600000008C00EC
:0E0060000000A714000000020000FC000000D9
:02006E00DACFE7
:10007000E4FFE2CFDAFFE9CFE4FFEACFE4FFF6CF17
:10008000E4FFF7CFE4FFF5CFE4FFF3CFE4FFF4CFD5
:10009000E4FFFACFE4FF00EE00F0100EE80403E303
:1000A000EECFE4FFFBD700EE10F0080EE80403E308
:1000B000EECFE4FFFBD7E652D9CFE6FFE1CFD9FF81
:1000C000E6527FEC09F0DF6E02013F513F2BEA6AF6
:1000D000420FE96E020EEA22DFCFEFFF3C0E3F5DDA
:1000E00001E33F6B412B9E9AE552E552E7CFD9FFE2
:1000F000E55200EE17F0080EE80403E3E5CFEDFF4C
:10010000FBD700EE0FF0100EE80403E3E5CFEDFFA0
:10011000FBD7E5CFFAFFE5CFF4FFE5CFF3FFE5CF5F
:10012000F5FFE5CFF7FFE5CFF6FFE5CFEAFFE5CF37
:10013000E9FFE5CFDAFF1100DACFE4FFE2CFDAFF23
:10014000E9CFE4FFEACFE4FFF6CFE4FFF7CFE4FF27
:10015000F5CFE4FFF3CFE4FFF4CFE4FFFACFE4FF01
:1001600000EE00F0100EE80403E3EECFE4FFFBD74F
:1001700000EE10F0080EE80403E3EECFE4FFFBD737
:10018000E652D9CFE6FFE1CFD9FFE65260EC09F0A5
:10019000DF6E0201BD51BD2BEA6AC00FE96E020E8F
:1001A000EA22DFCFEFFF3C0EBD5D01E3BD6BBF2B4D
:1001B000A49AE552E552E7CFD9FFE55200EE17F0D9
:1001C000080EE80403E3E5CFEDFFFBD700EE0FF0E8
:1001D000100EE80403E3E5CFEDFFFBD7E5CFFAFF10
:1001E000E5CFF4FFE5CFF3FFE5CFF5FFE5CFF7FF70
:1001F000E5CFF6FFE5CFEAFFE5CFE9FFE5CFDAFF90
:100200001100DACFE4FFE2CFDAFFE9CFE4FFEACF73
:10021000E4FFE652D9CFE6FFE1CFD9FFE652020173
:10022000025105E1ACA2FED78698AC9A1BD00151D1
:10023000EA6A030FE96E020EEA22EFCFDFFFDF501A
:10024000AD6E012B3C0E015D01E3016B000EE76E0C
:100250000219E8AE02D0023503D0E750D88002552B
:1002600001E20207E552E552E7CFD9FFE552E5CFBB
:10027000EAFFE5CFE9FFE5CFDAFF1100DACFE4FFCF
:10028000E2CFDAFFE9CFE4FFEACFE4FFE652D9CFCD
:10029000E6FFE1CFD9FFE6520201805105E16CA2F1
:1002A000FED786966C9A1BD07F51EA6A810FE96E61
:1002B000020EEA22EFCFDFFFDF506D6E7F2B3C0E88
:1002C0007F5D01E37F6B000EE76E8019E8AE02D020
:1002D000803503D0E750D880805501E28007E55291
:1002E000E552E7CFD9FFE552E5CFEAFFE5CFE9FFD9
:1002F000E5CFDAFF1100D9CFE6FFE1CFD9FFE65213
:100300007C0EDF6E330EE66EE66ADFCFE6FFFDECB5
:1003100008F0E552E552E552AB8EAC8AAC9E9D8A60
:100320009F8AE552E552E7CFD9FF1200D9CFE6FF09
:10033000E1CFD9FFE6527C0EDF6E330EE66EE66A41
:10034000DFCFE6FFB8EC08F0E552E552E552D08E7B
:100350006B8E6C8A6C9EA38AF28CA58AE552E5525C
:10036000E7CFD9FF1200D9CFE6FFE1CFD9FFACA28A
:10037000FED702010051002BEA6A030FE96E020E5C
:10038000EA22FE0EDBCFEFFF022B3C0E005D01E305
:10039000006B010E00D0E552E7CFD9FF1200D9CF94
:1003A000E6FFE1CFD9FF6CA2FED702017E517E2B82
:1003B000EA6A810FE96E020EEA22FE0EDBCFEFFF42
:1003C000802B3C0E7E5D01E37E6B010E00D0E5527A
:1003D000E7CFD9FF1200D9CFE6FFE1CFD9FF020E58
:1003E000E1268688000E0201E76E0219E8AE02D00F
:1003F000023503D0E750D880025523E20151EA6A62
:10040000030FE96E020EEA22010EEFCFDBFFACA272
:10041000FED7010EDB50AD6EACA2FED70201012B60
:100420003C0E015D01E3016B000EE76E0219E8AEC0
:1004300002D0023503D0E750D880025501E202070E
:10044000D1D78698106E020EE15C02E2E16AE552B5
:10045000E16E1050E552E7CFD9FF1200D9CFE6FF89
:10046000E1CFD9FF020EE1268686000E0201E76E7B
:100470008019E8AE02D0803503D0E750D88080558F
:1004800023E27F51EA6A810FE96E020EEA22010E31
:10049000EFCFDBFF6CA2FED7010EDB506D6E6CA2BE
:1004A000FED702017F2B3C0E7F5D01E37F6B000EC8
:1004B000E76E8019E8AE02D0803503D0E750D880CF
:1004C000805501E28007D1D78696106E020EE15C5E
:1004D00002E2E16AE552E16E1050E552E7CFD9FF42
:1004E0001200D9CFE6FFE1CFD9FFE652DF6AA39A27
:1004F000000E0201E76EBF19E8AE02D0BF3503D08F
:10050000E750D880BF5502E2010EDF6EA38ADF50AC
:1005100000D0E552E552E7CFD9FF1200D9CFE6FF70
:10052000E1CFD9FFE652DF6A9D9A000E0201E76E25
:100530004119E8AE02D0413503D0E750D88041558B
:1005400002E2010EDF6E9D8ADF5000D0E552E552D7
:10055000E7CFD9FF1200D9CFE6FFE1CFD9FFE652AE
:100560009D9A02014051402BEA6A420FE96E020E49
:10057000EA22EFCFDFFF3C0E405D01E3406B000E4F
:10058000E76E4119E8AE02D0413503D0E750D8807C
:10059000415501E241079D8ADF5000D0E552E55206
:1005A000E7CFD9FF1200D9CFE6FFE1CFD9FFE6525E
:1005B000A39A0201BE51BE2BEA6AC00FE96E020E79
:1005C000EA22EFCFDFFF3C0EBE5D01E3BE6B000E03
:1005D000E76EBF19E8AE02D0BF3503D0E750D88030
:1005E000BF5501E2BF079D8ADF5000D0E552E552BA
:0605F000E7CFD9FF120065
:0A05F600D9CFE6FFE1CFD9FF96EC64
:1006000001F0FE0EDBCF61F0FD0EDBCF62F0FC0EE1
:10061000DBCF63F0FB0EDBCF64F0F90EDBCFE1F054
:10062000FA0EDBCFE2F004D8E552E7CFD9FF120093
:1006300096EC01F00001DD6BDE6B010E606FDF6B8D
:10064000050EE06FE7C0E3F0E8C0E4F0E9C0E5F0D4
:10065000EAC0E6F060C0EBF01200D9CFE6FFE1CFD0
:10066000D9FF060EE126DF6A18EC06F0F3CFE7F0BB
:10067000F4CFE8F00001E96BEA6BE8AF02D0E9697A
:10068000EA69E30EE96E000EEA6EEE50E71909E141
:10069000EE50E81906E1EE50E91903E1EE50EA19CF
:1006A00000E113E06051EB5D08E1020E605D05E1E1
:1006B000E007E05102E1BCDFD6D0E7C0E3F0E8C0DC
:1006C000E4F0E9C0E5F0EAC0E6F06051030A01E1B8
:1006D000C5D0010A2EE0060A13E0050A02E0A8DFF1
:1006E000C0D071EC02F0000903E0D3EC02F0DF6E41
:1006F00000016151DF5C03E1DD6B040E606FB1D07E
:1007000071EC02F0000901E1AED0D3EC02F0DF6E33
:10071000DF0402E08DDFA7D00001DD51DD2BEA6AA6
:10072000650FE96E000EEA22DFCFEFFF020E606F69
:1007300098D071EC02F0000901E195D0D3EC02F001
:10074000DF6E00016251DF5C74E1020EDB6A030EB2
:10075000DB68D950030FE66E000EDA20E66E8DD806
:10076000E552E552E76E020EE7CFDBFFDB50020AEF
:1007700054E0030A05E0010A01E057D059DF73D0C5
:100780000001E151E21147E0D950040FE66E000E7E
:10079000DA20E66EDF0EE66E000EE66E670EE66E9F
:1007A000000EE66E05D0E2C0FAFF0001E151F96EDD
:1007B000FADF106E060EE15E10500001DE6F010ED2
:1007C000A16FDE2BDFC0A2F0DE2BDE52020EDD6E4B
:1007D000DE51F36E010EDBCFF4FFF350F45C1AE24E
:1007E000040EDBCFE9FF050EDBCFEAFFEF50E66E2C
:1007F000010EDB50EA6AA10FE96E000EEA22E55213
:10080000E750EF6E040EDB2A050E01E3DB2A010E32
:10081000DB2ADED70AD00CDF26D00001010EA16F43
:10082000DE2BDFC0A2F0DE2B00D00001030E606FD4
:1008300014D0DD51DD2BEA6A650FE96E000EEA2265
:10084000DFCFEFFF3C0EDD5D08E3010EA16FDE2B75
:10085000900EA26FDE2B030E606F03D059D8E8DE36
:1008600000D060C0EBF0060EE15C02E2E16AE55206
:10087000E16EE552E7CFD9FF1200D9CFE6FFE1CF15
:10088000D9FF020EE1260001DD05EA6A650FE96E77
:10089000000EEA22EFCFDFFF010EDB6A650505E0FF
:1008A000FF0E655D02E0000E27D0DD05E66E650EE9
:1008B000E66E000EE66E9DD8E552E552E552E76E13
:1008C000010EE7CFDBFFDB50DF5C0CE10001DD0751
:1008D000DD51EA6A650FE96E000EEA22EF6A010E49
:1008E0000BD00AD0FD0EDBCFE9FFFE0EDBCFEAFF17
:1008F000910EEF6E000E00D0106E020EE15C02E26F
:10090000E16AE552E16E1050E552E7CFD9FF1200DF
:10091000D9CFE6FFE1CFD9FF020EE126DF6A010E53
:10092000DB6ADEC0E6FFA10EE66E000EE66E61D861
:10093000E552E552E552DF6E63C0E6FFCFEC01F011
:10094000E552010EDB6A0001DE51F36E010EDBCFD2
:10095000F4FFF350F45C0FE2010EDB50EA6AA10FE2
:10096000E96E000EEA22EF50E66ECFEC01F0E552A0
:10097000010EDB2AE8D7DFCFE6FFCFEC01F0E5522E
:1009800064C0E6FFCFEC01F0E5520400020EE15C2A
:1009900002E2E16AE552E16EE552E7CFD9FF1200CB
:1009A000D9CFE6FFE1CFD9FFFD0EDBCFF6FFFE0E7C
:1009B000DBCFF7FF0800F55016E0FD0EDBCFF6FFAA
:1009C000FE0EDBCFF7FF0800F550E66ECFEC01F02E
:1009D000E552FD0EDBCFF6FFDB2AFE0EDBCFF7FF85
:1009E00001E3DB2AE1D72EEC02F0E552E7CFD9FF95
:1009F0001200D9CFE6FFE1CFD9FF030EE126DF6A6F
:100A0000010EDB6AFC0EDB50F36E010EDBCFF4FF50
:100A1000F350F45C12E2010EDB50E76EFD0EDBCF0B
:100A2000E9FFFE0EDBCFEAFFE750E926000EEA22DF
:100A3000EF50DF1A010EDB2AE5D7DF50106E030EF0
:100A4000E15C03E200D0E16AE552E16E1050E5524C
:060A5000E7CFD9FF120000
:0A0A5600DACFE4FFE2CFDAFFE9CFC8
:100A6000E4FFEACFE4FFF6CFE4FFF7CFE4FFF5CFF2
:100A7000E4FFF3CFE4FFF4CFE4FFFACFE4FF00EEAE
:100A800000F0100EE80403E3EECFE4FFFBD700EE26
:100A900010F0080EE80403E3EECFE4FFFBD7E652C4
:100AA000F294F4C0E6FFF5C0E6FFBAEC09F0E552B7
:100AB000E55205D0F7C0FAFF0001F651F96EFADFF2
:100AC0000001EC2B000EED23EE23EF23640EEC1956
:100AD00005E1ED5103E1EE5101E1EF5109E1F02BA8
:100AE000000EF123F223F323EC6BED6BEE6BEF6B57
:100AF000E55200EE17F0080EE80403E3E5CFEDFF42
:100B0000FBD700EE0FF0100EE80403E3E5CFEDFF96
:100B1000FBD7E5CFFAFFE5CFF4FFE5CFF3FFE5CF55
:100B2000F5FFE5CFF7FFE5CFF6FFE5CFEAFFE5CF2D
:100B3000E9FFE5CFDAFF1100DACFE4FFE2CFDAFF19
:100B4000E9CFE4FFEACFE4FFF6CFE4FFF7CFE4FF1D
:100B5000F5CFE4FFF3CFE4FFF4CFE4FFFACFE4FFF7
:100B600000EE00F0100EE80403E3EECFE4FFFBD745
:100B700000EE10F0080EE80403E3EECFE4FFFBD72D
:100B8000E6529E90F8C0E6FFF9C0E6FF9EEC09F041
:100B9000E552E55205D0FBC0FAFF0001FA51F96EAB
:100BA000FADFE55200EE17F0080EE80403E3E5CFA4
:100BB000EDFFFBD700EE0FF0100EE80403E3E5CFE6
:100BC000EDFFFBD7E5CFFAFFE5CFF4FFE5CFF3FF6D
:100BD000E5CFF5FFE5CFF7FFE5CFF6FFE5CFEAFF7D
:100BE000E5CFE9FFE5CFDAFF1100D9CFE6FFE1CF8E
:100BF000D9FF930EE66ED6EC09F0E552FD0EDBCF81
:100C0000E6FFFE0EDBCFE6FFBAEC09F0E552E55257
:100C1000FD0EDBCFF4F0FE0EDBCFF5F0FB0EDBCFED
:100C2000F6F0FC0EDBCFF7F0E552E7CFD9FF12006C
:100C3000D9CFE6FFE1CFD9FF040EE126F29AF0C04A
:100C4000DFFF010EF1C0DBFF020EF2C0DBFF030E7F
:100C5000F3C0DBFFF28ADECF04F0DECF05F0DECF9B
:100C600006F0DDCF07F0DD52DD52040EE15C03E259
:100C700000D0E16AE552E16EE552E7CFD9FF1200FC
:100C8000F29E0001F06BF16BF26BF36BF28E1200CF
:100C9000D9CFE6FFE1CFD9FFC50EE66E3FEC09F0F4
:100CA000E552FD0EDBCFE6FFFE0EDBCFE6FF9EEC4E
:100CB00009F0E552E5529F80FD0EDBCFF8F0FE0E05
:100CC000DBCFF9F0FB0EDBCFFAF0FC0EDBCFFBF055
:080CD000E552E7CFD9FF120045
:080CD800D9CFE6FFE1CFD9FFFF
:100CE000E652FD0EDBCF12F0FE0EDBCF13F013C089
:100CF00012F0136A640E1302F3CF13F01202F3CF53
:100D000012F0F4501326FD0EDBCF14F0FE0EDBCFF5
:100D100015F0040ED89015321432E804FBE10A0EE7
:100D20001502F3CF15F01402F3CF14F0F45015268A
:100D300012501410106E13501510116E0F0EE76E36
:100D4000FD0EDBCF16F0FE0EDBCF17F0E7501616C8
:100D5000176A10501610DF6EDF5000D0E552E552D2
:100D6000E7CFD9FF1200D9CFE6FFE1CFD9FF020EBE
:100D7000E1260A0E106E10C00CF0FE0EDBCF07F05D
:100D800036EC0AF00750DF6E0A0E106E10C00CF041
:100D9000FE0EDBCF07F036EC0AF0010E03C0DBFFDE
:100DA000DB500F0B106E0F0EDF14100DF3501010F0
:100DB000106E020EE15C03E200D0E16AE552E16EE2
:100DC0001050E552E7CFD9FF1200D9CFE6FFE1CFAF
:100DD000D9FFE652DF6AFE0EDB500F0B106EFE0EDF
:100DE000DB50F00BE8380F0B0A0DF3501024DF6EC8
:100DF000DF5000D0E552E552E7CFD9FF1200D9CF3E
:100E0000E6FFE1CFD9FF0A0E106E10C00CF0FE0E07
:100E1000DBCF07F036EC0AF00750060DFE0EDBCFF5
:100E2000E7FFF350E726FE0EE7CFDBFFDB50106E47
:100E3000116A10C0F3FF11C0F4FF00D0E552E7CFF4
:100E4000D9FF1200D9CFE6FFE1CFD9FF0A0E106E0D
:100E500010C00CF0FE0EDBCF07F036EC0AF00350AA
:100E6000300FE66E010EE76EFC0EDBCFE9FFFD0EE4
:100E7000DBCFEAFFE750E926000EEA22E552E75011
:100E8000EF6E0A0E106E10C00CF0FE0EDBCF07F0F6
:100E900036EC0AF00750300FE66EFC0EDBCFE9FFB0
:100EA000FD0EDBCFEAFFE552E750EF6EE552E7CFEC
:040EB000D9FF120054
:0C0EB400D9CFE6FFE1CFD9FF040EE12604
:100EC000410EF36E020EF3CFDBFF300EF36E030E16
:100ED000F3CFDBFFF2EC09F044EC0AF08E0EE66E85
:100EE000140EE66EDC0EE66E0B0EE66EF5EC05F00B
:100EF000E552E552E552E5527BEC01F0EAEC07F0F1
:100F00000A0EE66E100EE66EDD0EE66ECC0EE66E96
:100F1000BB0EE66EAA0EE66EFBEC02F0106E060E3D
:100F2000E15E1050DE6ADD6ADECF10F0DDCF11F039
:100F3000D890115004E6090E105C000E115816E20C
:100F4000030EDB50126E136ADE501224106EDD5059
:100F50001320116E1050E66ECFEC01F0E5522EEC2E
:100F600002F0DF2A010E01E3DB2ADED7DE6ADD6A4A
:100F7000DECF10F0DDCF11F0D890115004E61A0E3C
:100F8000105C000E115816E2020EDB50126E136A4E
:100F9000DE501224106EDD501320116E1050E66EDC
:100FA000B3EC01F0E552EBEC01F0DF2A010E01E3B6
:100FB000DB2ADED7F28EEDEC07F02DEC03F0FBD749
:100FC000040EE15C02E2E16AE552E16EE552E7CF30
:040FD000D9FF120033
:0C0FD400819081921200D9CFE6FFE1CF9E
:100FE000D9FFE6528EEC02F000090AE0ABEC02F009
:100FF000DF6EDFCFE6FFCFEC01F0E5522EEC02F022
:10100000E552E552E7CFD9FF1200D9CFE6FFE1CF95
:10101000D9FF070EE126FD0EDBCFE9FFFE0EDBCF89
:10102000EAFF010EEFCFDBFF020EDB6A010EDB50A1
:10103000810A21E0010A01E03DD08180E80EF36ED3
:10104000030EF3CFDBFFF36E040EF3CFDBFF030ED3
:10105000DBCF10F0DB06040EDBCF11F001E2DB0684
:101060001050111006E0020EE66E08EC0AF0E55290
:10107000EED781901FD08182E80EF36E050EF3CF7C
:10108000DBFF030EF36E060EF3CFDBFF050EDBCFA7
:1010900010F0DB06060EDBCF11F001E2DB0610508C
:1010A000111006E0020EE66E08EC0AF0E552EED7EB
:1010B000819200D0020EDB50106E070EE15C03E25D
:1010C00000D0E16AE552E16E1050E552E7CFD9FF5A
:0210D00012000C
:0E10D200300EF66E000EF76E000EF86E0F0177
:1010E0000900F550056F0900F550066F03E105672B
:1010F00001D03DD00900F550006F0900F550016F97
:101100000900F550026F09000900F550E96E090069
:10111000F550EA6E090009000900F550036F090057
:10112000F550046F09000900F6CF07FFF7CF08FF5D
:10113000F8CF09FF00CFF6FF01CFF7FF02CFF8FF8E
:101140000F01035302E1045307E00900F550EE6E6E
:101150000307F8E20407F9D707CFF6FF08CFF7FF38
:1011600009CFF8FF0F010507000E065BBFD712007D
:10117000D9CFE6FFDACFE6FFE1CFD9FFE2CFDAFF42
:101180006C6A6B6AFD0EDBB06C88DBA202D06C8CE3
:101190006B8CDBB46C8EDBA602D06B8801D06B8AC3
:1011A000DBA802D06C8401D06C94DBBA6B86DBAC1C
:1011B00002D0A38A01D0A39ADBAE02D0A38801D0CB
:1011C000A398FB0EDB506F6EFC0EDBCF11F011C04D
:1011D00010F0116A10507D6E6C8A6B8E9892988414
:1011E0006C50100B04E06C50800B01E19882E552CA
:0A11F000E5CFDAFFE7CFD9FF1200C8
:0611FA00D9CFE6FFDACFB9
:10120000E6FFE1CFD9FFE2CFDAFFAC6AAB6AFD0EB1
:10121000DBB0AC88DBA202D0AC8CAB8CDBB4AC8E88
:10122000DBA602D0AB8801D0AB8ADBB8AC84DBBADA
:10123000AB86DBAC02D09D8A01D09D9ADBAE02D09A
:101240009D8801D09D98FB0EDB50AF6EFC0EDBCF6E
:1012500011F011C010F0116A10507F6EAC8AAB8E85
:10126000949C948EAC50100B04E0AC50800B01E1C8
:0E127000948CE552E5CFDAFFE7CFD9FF1200EC
:02127E00D9CFC6
:10128000E6FFDACFE6FFE1CFD9FFE2CFDAFFFD0ECE
:10129000DB507E0BCD6EFD0EDBAC02D0CD8E01D0CF
:1012A000CD9ECF6ACE6A9E90DBAE02D09D8001D0EB
:1012B0009D90CD80E552E5CFDAFFE7CFD9FF120050
:1012C000D9CFE6FFDACFE6FFE1CFD9FFE2CFDAFFF1
:1012D000E652F20E0001FE176BAC03D0FE916BB02C
:1012E000FE816BB4FE856BB2FE876E50DF6EDF5001
:0E12F000E552E552E5CFDAFFE7CFD9FF120055
:0212FE00D9CF46
:10130000E6FFDACFE6FFE1CFD9FFE2CFDAFFE65220
:10131000F20E0001FF17ABAC03D0FF91ABB0FF8121
:10132000ABB4FF85ABB2FF87AE50DF6EDF50E55246
:0C133000E552E5CFDAFFE7CFD9FF12004D
:04133C00D9CFE6FF20
:10134000DACFE6FFE1CFD9FFE2CFDAFFE652E6528D
:10135000FC0EDBCFDEFFDBCFDDFF010EDB50CF6EFF
:10136000DF50CE6EE552E552E552E5CFDAFFE7CF2A
:04137000D9FF12008F
:0C137400D9CFE6FFDACFE6FFE1CFD9FFCA
:10138000E2CFDAFFE652E652FC0EDBCFDEFFDBCF28
:10139000DDFF010EDB50D76EDF50D66EE552E55211
:0C13A000E552E5CFDAFFE7CFD9FF1200DD
:0413AC00D9CFE6FFB0
:1013B000DACFE6FFE1CFD9FFE2CFDAFFFD0EDB5057
:1013C0007F0BD56ED76AD66AF294FD0EDBAE02D0E3
:1013D000F28A01D0F29AD58EE552E5CFDAFFE7CF57
:0413E000D9FF12001F
:0C13E400720ED36EC26A0F0EC16EB50E01
:1013F000C06E800E9C6E989086909898869898966D
:10140000869698929884949C948E939093921200CE
:10141000FF0EE350186E480E01D04C0EE76EE72E1B
:10142000FED7E76AE72EFED7182EF7D70000120086
:10143000600EF36E00EE00F00F0E01D81200EA60AD
:1014400002D0EE6AFCD7F350E9601200EE6AFCD7D6
:101450001EEE00F02EEE00F0F86A0F9C69EC08F02A
:0C14600003EC00F05AEC07F0FBD7120080
:04146C00036A080EF9
:10147000E76ED890073603360C50035C02E3036E28
:08148000072AE72EF7D712003E
:081488000201FD6B12000201DC
:10149000FD0503E1FD6B869003D0010EFD6F868094
:0214A000120038
:0514A200434F4D0A005C
:0914A7000000000000000000003C
:1014B000000000000000000000000000000000002C
:1014C000000000000000000000000000000000001C
:1014D000000000000000000000000000000000000C
:1014E00000000000000000000000000000000000FC
:1014F00000000000000000000000000000000000EC
:1015000000000000000000000000000000000000DB
:1015100000000000000000000000000000000000CB
:1015200000000000000000000000000000000000BB
:1015300000000000000000000000000000000000AB
:10154000000000000000000000000000000000009B
:10155000000000000000000000000000000000008B
:10156000000000000000000000000000000000007B
:10157000000000000000000000000000000000006B
:10158000000000000000000000000000000000005B
:10159000000000000000000000000000000000004B
:0315A00000000048
:0D15A300000000000000000000000000003B
:1015B000000000000000000000000000000000002B
:1015C000000000000000000000000000000000001B
:1015D000000000000000000000000000000000000B
:1015E00000000000000000000000000000000000FB
:1015F00000000000000000000000000000000000EB
:1016000000000000000000000000000000000000DA
:1016100000000000000000000000000000000000CA
:0F162000000000000000000000000000000000BB
:01162F0000BA
:0F163000000000000000000000000000000000AB
:01163F0000AA
:02164000FFFFAA
:020000040030CA
:0100010008F6
:010002001BE2
:0100030012EA
:01000400F308
:010005008377
:010006008178
:01000800F106
:010009008076
:01000A00FFF6
:01000B00E014
:01000C00FFF4
:01000D0040B2
:00000001FF
