:020000040000FA
:0600000068EF13F012008E
:020006001200E6
:08000800F2A402D02DEF10F06C
:100010009EA002D091EF10F0F2A002D041EF11F0BB
:080020001200D08EF28E1200D6
:08002800C26A0F0EC16EB50E95
:10003000C06E9490949C948E956A929092929294B1
:0C00400092969368949694989690120003
:01004C0000B3
:100050000800AB2700004F03000016000000A02797
:100060000000900300000B0000004C000000A603FD
:1000700000000100000093270000830300000D0032
:1000800000006B2700000C030000280000005D2723
:100090000000750300000E0000004227000034033A
:1000A00000001B00000038270000000300000A00C9
:0200B00000004E
:0E00B200D9CFE6FFE1CFD9FFE652FD0EDBCF3E
:1000C00016F0FE0EDBCF17F017C016F0176A640E9D
:1000D0001702F3CF17F01602F3CF16F0F4501726DD
:1000E000FD0EDBCF18F0FE0EDBCF19F0040ED8901A
:1000F00019321832E804FBE10A0E1902F3CF19F0A5
:100100001802F3CF18F0F450192616501810146E78
:1001100017501910156E0F0EE76EFD0EDBCF1AF09B
:10012000FE0EDBCF1BF0E7501A161B6A14501A1094
:10013000DF6EDF5000D0E552E552E7CFD9FF120065
:10014000D9CFE6FFE1CFD9FFFE0EDB50F00BE83A46
:10015000060DFE0EDBCFE7FFF350E75EFE0EE7CFA6
:10016000DBFFDB50146E156A14C0F3FF15C0F4FFFB
:1001700000D0E552E7CFD9FF1200D9CFE6FFE1CF9B
:10018000D9FF020EE1260A0E146E14C00EF0FE0E08
:10019000DBCF09F076EC13F00950DF6E0A0E146E17
:1001A00014C00EF0FE0EDBCF09F076EC13F0010E5A
:1001B00005C0DBFFDB500F0B146E0F0EDF14100DAC
:1001C000F3501410146E020EE15C03E200D0E16AF9
:1001D000E552E16E1450E552E7CFD9FF1200D9CFB6
:1001E000E6FFE1CFD9FF0E0EE126FD0EDBCF14F0C6
:1001F000FE0EDBCF15F00A0E0D6E0E6A14C008F06D
:1002000015C009F032EC13F004C014F005C015F06D
:100210000A0E14C0DBFF0B0E15C0DBFF0C0EDB6AF1
:100220000D0EDB6A0A0EDB50E76E040EE7CFDBFF34
:10023000FD0EDBCF14F0FE0EDBCF15F00A0E0D6EB7
:100240000E6A14C008F015C009F032EC13F008C0B3
:1002500014F009C015F0060E14C0DBFF070E15C020
:10026000DBFF080EDB6A090EDB6A060EDBCF06F049
:10027000070EDBCF07F0080EDBCF08F0090EDBCF4F
:1002800009F00A0E0B6E0C6A0D6A0E6A5EEC12F033
:100290000A0E02C0DBFF0B0E03C0DBFF0C0E04C016
:1002A000DBFF0D0E05C0DBFF0A0EDB50E76E030E11
:1002B000E7CFDBFF060EDBCF06F0070EDBCF07F044
:1002C000080EDBCF08F0090EDBCF09F00A0E0B6E2B
:1002D0000C6A0D6A0E6A5EEC12F0060E06C0DBFFB9
:1002E000070E07C0DBFF080E08C0DBFF090E09C0C0
:1002F000DBFF060EDBCF06F0070EDBCF07F0080EA4
:10030000DBCF08F0090EDBCF09F00A0E0B6E0C6A8A
:100310000D6A0E6A5EEC12F00A0E02C0DBFF0B0ED5
:1003200003C0DBFF0C0E04C0DBFF0D0E05C0DBFFBE
:100330000A0EDB50E76E020EE7CFDBFF060EDBCFC7
:1003400006F0070EDBCF07F0080EDBCF08F0090E32
:10035000DBCF09F00A0E0B6E0C6A0D6A0E6A5EECBA
:1003600012F0060E06C0DBFF070E07C0DBFF080E0B
:1003700008C0DBFF090E09C0DBFF060EDBCF06F06D
:10038000070EDBCF07F0080EDBCF08F0090EDBCF3E
:1003900009F00A0E0B6E0C6A0D6A0E6A5EEC12F022
:1003A0000A0E02C0DBFF0B0E03C0DBFF0C0E04C005
:1003B000DBFF0D0E05C0DBFF0A0EDB50E76E010E02
:1003C000E7CFDBFF060EDBCF06F0070EDBCF07F033
:1003D000080EDBCF08F0090EDBCF09F00A0E0B6E1A
:1003E0000C6A0D6A0E6A5EEC12F0060E06C0DBFFA8
:1003F000070E07C0DBFF080E08C0DBFF090E09C0AF
:10040000DBFF060EDB50DF6E050EDB6AF36EDBCF23
:10041000F4FFF350F45C21E2D9CF14F0DACF15F0F9
:10042000050EDB500F011424E96E000E1520EA6E54
:10043000EF50E66E050EDB50E76EFB0EDBCFE9FFFB
:10044000FC0EDBCFEAFFE750E926000EEA22E55278
:10045000E750EF6E050EDB2AD9D70E0EE15C02E203
:10046000E16AE552E16EE552E7CFD9FF1200D9CF3C
:10047000E6FFE1CFD9FF080EE1260A0E146E14C084
:100480000EF0FE0EDBCF09F076EC13F00550E66EB1
:10049000D950060FE96EDACFEAFFE552E750EE6E6B
:1004A000ED6A060EDB50E76E020EE7CFDBFF0A0EA9
:1004B000146E14C00EF0FE0EDBCF09F076EC13F0D4
:1004C0000950E66ED950040FE96EDACFEAFFE55223
:1004D000E750EE6EED6A040EDBCF14F0050EDBCFB5
:1004E00015F00A0E0D6E0E6A14C008F015C009F062
:1004F00032EC13F004C014F005C015F0060E14C061
:10050000DBFF070E15C0DBFF060EDB50E76E010EAA
:10051000E7CFDBFF0A0E146E156A040EDBCF08F07E
:10052000050EDBCF09F014C00DF015C00EF032EC53
:1005300013F0040E08C0DBFF050E09C0DBFF040E3C
:10054000DB50DF6E030EDB6AF36EDBCFF4FFF3509C
:10055000F45C21E2D9CF14F0DACF15F0030EDB50B2
:100560000F011424E96E000E1520EA6EEF50E66EBE
:10057000030EDB50E76EFC0EDBCFE9FFFD0EDBCF99
:10058000EAFFE750E926000EEA22E552E750EF6E57
:10059000030EDB2AD9D7080EE15C02E2E16AE552DC
:1005A000E16EE552E7CFD9FF1200D9CFE6FFE1CFE8
:1005B000D9FF130EE126FB0EDBCF06F0FC0EDBCFDE
:1005C00007F0FD0EDBCF08F0FE0EDBCF09F00A0EC0
:1005D0000B6E0C6A0D6A0E6A5EEC12F00F0E02C012
:1005E000DBFF100E03C0DBFF110E04C0DBFF120E99
:1005F00005C0DBFF0F0EDB50E76E090EE7CFDBFF18
:10060000FB0EDBCF06F0FC0EDBCF07F0FD0EDBCFE1
:1006100008F0FE0EDBCF09F00A0E0B6E0C6A0D6AB5
:100620000E6A5EEC12F00B0E06C0DBFF0C0E07C06C
:10063000DBFF0D0E08C0DBFF0E0E09C0DBFF0B0E4B
:10064000DBCF06F00C0EDBCF07F00D0EDBCF08F092
:100650000E0EDBCF09F00A0E0B6E0C6A0D6A0E6AE5
:100660005EEC12F00F0E02C0DBFF100E03C0DBFFCA
:10067000110E04C0DBFF120E05C0DBFF0F0EDB50B6
:10068000E76E080EE7CFDBFF0B0EDBCF06F00C0E9C
:10069000DBCF07F00D0EDBCF08F00E0EDBCF09F03D
:1006A0000A0E0B6E0C6A0D6A0E6A5EEC12F00B0EEF
:1006B00006C0DBFF0C0E07C0DBFF0D0E08C0DBFF22
:1006C0000E0E09C0DBFF0B0EDBCF06F00C0EDBCFEE
:1006D00007F00D0EDBCF08F00E0EDBCF09F00A0E8F
:1006E0000B6E0C6A0D6A0E6A5EEC12F00F0E02C001
:1006F000DBFF100E03C0DBFF110E04C0DBFF120E88
:1007000005C0DBFF0F0EDB50E76E070EE7CFDBFF08
:100710000B0EDBCF06F00C0EDBCF07F00D0EDBCFA0
:1007200008F00E0EDBCF09F00A0E0B6E0C6A0D6A94
:100730000E6A5EEC12F00B0E06C0DBFF0C0E07C05B
:10074000DBFF0D0E08C0DBFF0E0E09C0DBFF0B0E3A
:10075000DBCF06F00C0EDBCF07F00D0EDBCF08F081
:100760000E0EDBCF09F00A0E0B6E0C6A0D6A0E6AD4
:100770005EEC12F00F0E02C0DBFF100E03C0DBFFB9
:10078000110E04C0DBFF120E05C0DBFF0F0EDB50A5
:10079000E76E060EE7CFDBFF0B0EDBCF06F00C0E8D
:1007A000DBCF07F00D0EDBCF08F00E0EDBCF09F02C
:1007B0000A0E0B6E0C6A0D6A0E6A5EEC12F00B0EDE
:1007C00006C0DBFF0C0E07C0DBFF0D0E08C0DBFF11
:1007D0000E0E09C0DBFF0B0EDBCF06F00C0EDBCFDD
:1007E00007F00D0EDBCF08F00E0EDBCF09F00A0E7E
:1007F0000B6E0C6A0D6A0E6A5EEC12F00F0E02C0F0
:10080000DBFF100E03C0DBFF110E04C0DBFF120E76
:1008100005C0DBFF0F0EDB50E76E050EE7CFDBFFF9
:100820000B0EDBCF06F00C0EDBCF07F00D0EDBCF8F
:1008300008F00E0EDBCF09F00A0E0B6E0C6A0D6A83
:100840000E6A5EEC12F00B0E06C0DBFF0C0E07C04A
:10085000DBFF0D0E08C0DBFF0E0E09C0DBFF0B0E29
:10086000DBCF06F00C0EDBCF07F00D0EDBCF08F070
:100870000E0EDBCF09F00A0E0B6E0C6A0D6A0E6AC3
:100880005EEC12F00F0E02C0DBFF100E03C0DBFFA8
:10089000110E04C0DBFF120E05C0DBFF0F0EDB5094
:1008A000E76E040EE7CFDBFF0B0EDBCF06F00C0E7E
:1008B000DBCF07F00D0EDBCF08F00E0EDBCF09F01B
:1008C0000A0E0B6E0C6A0D6A0E6A5EEC12F00B0ECD
:1008D00006C0DBFF0C0E07C0DBFF0D0E08C0DBFF00
:1008E0000E0E09C0DBFF0B0EDBCF06F00C0EDBCFCC
:1008F00007F00D0EDBCF08F00E0EDBCF09F00A0E6D
:100900000B6E0C6A0D6A0E6A5EEC12F00F0E02C0DE
:10091000DBFF100E03C0DBFF110E04C0DBFF120E65
:1009200005C0DBFF0F0EDB50E76E030EE7CFDBFFEA
:100930000B0EDBCF06F00C0EDBCF07F00D0EDBCF7E
:1009400008F00E0EDBCF09F00A0E0B6E0C6A0D6A72
:100950000E6A5EEC12F00B0E06C0DBFF0C0E07C039
:10096000DBFF0D0E08C0DBFF0E0E09C0DBFF0B0E18
:10097000DBCF06F00C0EDBCF07F00D0EDBCF08F05F
:100980000E0EDBCF09F00A0E0B6E0C6A0D6A0E6AB2
:100990005EEC12F00F0E02C0DBFF100E03C0DBFF97
:1009A000110E04C0DBFF120E05C0DBFF0F0EDB5083
:1009B000E76E020EE7CFDBFF0B0EDBCF06F00C0E6F
:1009C000DBCF07F00D0EDBCF08F00E0EDBCF09F00A
:1009D0000A0E0B6E0C6A0D6A0E6A5EEC12F00B0EBC
:1009E00006C0DBFF0C0E07C0DBFF0D0E08C0DBFFEF
:1009F0000E0E09C0DBFF0B0EDBCF06F00C0EDBCFBB
:100A000007F00D0EDBCF08F00E0EDBCF09F00A0E5B
:100A10000B6E0C6A0D6A0E6A5EEC12F00F0E02C0CD
:100A2000DBFF100E03C0DBFF110E04C0DBFF120E54
:100A300005C0DBFF0F0EDB50E76E010EE7CFDBFFDB
:100A40000B0EDBCF06F00C0EDBCF07F00D0EDBCF6D
:100A500008F00E0EDBCF09F00A0E0B6E0C6A0D6A61
:100A60000E6A5EEC12F00B0E06C0DBFF0C0E07C028
:100A7000DBFF0D0E08C0DBFF0E0E09C0DBFF0B0E07
:100A8000DB50DF6E0A0EDB6AF36EDBCFF4FFF35050
:100A9000F45C22E2D9CF14F0DACF15F00A0EDB5065
:100AA0000F011424E96E000E1520EA6EEF50300994
:100AB000E66E0A0EDB50E76EF90EDBCFE9FFFA0EA9
:100AC000DBCFEAFFE750E926000EEA22E552E750C5
:100AD000EF6E0A0EDB2AD8D7130EE15C02E2E16A60
:100AE000E552E16EE552E7CFD9FF1200D9CFE6FF1C
:100AF000E1CFD9FFFE0EDB50F00BE83A060DFE0EFB
:100B0000DBCFE7FFF350E75EFE0EE7CFDBFFDB5006
:100B100000D0E552E7CFD9FF1200D9CFE6FFE1CFF1
:100B2000D9FF0A0E146E14C00EF0FE0EDBCF09F0D2
:100B300076EC13F00950060DFE0EDBCFE7FFF35005
:100B4000E726FE0EE7CFDBFFDB50146E156A14C0FC
:100B5000F3FF15C0F4FF00D0E552E7CFD9FF120034
:100B6000D9CFE6FFE1CFD9FF060EE126F36EFC0EEA
:100B7000DBCFF4FFF350F45C71E2020EDB6A030E8C
:100B8000DB6A040EDB6A050EDB6ADF6AFC0EDB50F3
:100B9000DF5C58E2FC0EDBCFE6FFDF28E552E75CC6
:100BA000E76E010EE7CFDBFFF36E040EF3CFDBFF42
:100BB000050EDB6A010EDB50000814E20A0E086E17
:100BC000096A040EDBCF0DF0050EDBCF0EF0A3ECAF
:100BD00012F0040E06C0DBFF050E07C0DBFF010E9E
:100BE000DB06E8D7020EDBCF16F0030EDBCF17F0E3
:100BF000DF50E76EFD0EDBCFE9FFFE0EDBCFEAFF35
:100C0000E750E926000EEA22EF500F0B186E196A22
:100C1000040EDBCF08F0050EDBCF09F018C00DF095
:100C200019C00EF0A3EC12F016500624146E1750E3
:100C30000720156E020E14C0DBFF030E15C0DBFF8C
:100C4000DF2AA4D7020EDBCF14F0030EDBCF15F0A2
:100C500014C0F3FF15C0F4FF04D003D0F36AF46AA4
:100C600000D0060EE15C02E2E16AE552E16EE55277
:060C7000E7CFD9FF1200DE
:0A0C7600D9CFE6FFE1CFD9FFFE0E53
:100C8000DB04E96EEA6AD890E936EA360D0EE92609
:100C9000030EEA22EECF14F0EFCF15F014C0F3FFED
:100CA00015C0F4FF00D0E552E7CFD9FF1200D9CF2D
:100CB000E6FFE1CFD9FFFE0EDBCFE6FFE66A59EC97
:100CC00000F0E552E552FF0FE96EEA6AD890E93686
:100CD000EA361B0EE926030EEA22EECF14F0EFCF20
:100CE00015F014C0F3FF15C0F4FF00D0E552E7CFB4
:100CF000D9FF1200D9CFE6FFE1CFD9FF16EC0FF0F4
:100D0000D00EE66E5AEC0FF0E552E66A5AEC0FF0A0
:100D1000E55216EC0FF0D10EE66E5AEC0FF0E552EC
:100D2000010EE66EA1EC0FF0E552E66EFD0EDBCF94
:100D3000E9FFFE0EDBCFEAFFE552E750EF6E010E52
:100D4000E66EA1EC0FF0E552E66E010EE76EFD0EC9
:100D5000DBCFE9FFFE0EDBCFEAFFE750E926000E0E
:100D6000EA22E552E750EF6E010EE66EA1EC0FF0BD
:100D7000E552E66E020EE76EFD0EDBCFE9FFFE0EDA
:100D8000DBCFEAFFE750E926000EEA22E552E75002
:100D9000EF6E010EE66EA1EC0FF0E552E66E030E6B
:100DA000E76EFD0EDBCFE9FFFE0EDBCFEAFFE7507B
:100DB000E926000EEA22E552E750EF6E010EE66EDC
:100DC000A1EC0FF0E552E66E040EE76EFD0EDBCFF0
:100DD000E9FFFE0EDBCFEAFFE750E926000EEA222C
:100DE000E552E750EF6E010EE66EA1EC0FF0E55212
:100DF000E66E050EE76EFD0EDBCFE9FFFE0EDBCFE4
:100E0000EAFFE750E926000EEA22E552E750EF6ECE
:100E1000E66AA1EC0FF0E552E66E060EE76EFD0EF7
:100E2000DBCFE9FFFE0EDBCFEAFFE750E926000E3D
:100E3000EA22E552E750EF6E2CEC0FF0E552E7CFD7
:100E4000D9FF1200D9CFE6FFE1CFD9FF16EC0FF0A2
:100E5000D00EE66E5AEC0FF0E552E66A5AEC0FF04F
:100E6000E552FD0EDBCFE9FFFE0EDBCFEAFFEF50D0
:100E7000E66E5AEC0FF0E552010EE76EFD0EDBCF89
:100E8000E9FFFE0EDBCFEAFFE750E926000EEA227B
:100E9000EF50E66E5AEC0FF0E552020EE76EFD0ED3
:100EA000DBCFE9FFFE0EDBCFEAFFE750E926000EBD
:100EB000EA22EF50E66E5AEC0FF0E552030EE76EB1
:100EC000FD0EDBCFE9FFFE0EDBCFEAFFE750E926A0
:100ED000000EEA22EF50E66E5AEC0FF0E552040ED7
:100EE000E76EFD0EDBCFE9FFFE0EDBCFEAFFE7503A
:100EF000E926000EEA22EF50E66E5AEC0FF0E552BA
:100F0000050EE76EFD0EDBCFE9FFFE0EDBCFEAFF3D
:100F1000E750E926000EEA22EF50E66E5AEC0FF099
:100F2000E552060EE76EFD0EDBCFE9FFFE0EDBCFCE
:100F3000EAFFE750E926000EEA22EF50E66E5AEC8F
:100F40000FF0E5522CEC0FF0E552E7CFD9FF12007D
:100F5000D9CFE6FFE1CFD9FFFD0EDB041DE1FE0E88
:100F6000DB504009E76EFE0EE7CFDBFFFC0EDB0433
:100F700008E1FE0EDB502009E76EFE0EE7CFDBFF37
:100F80000AD0FC0EDB5007E1FE0EDB50DF0BE76EF4
:100F9000FE0EE7CFDBFF0AD0FD0EDB5007E1FE0EB1
:100FA000DB50BF0BE76EFE0EE7CFDBFFFE0EDB5024
:100FB00000D0E552E7CFD9FF1200D9CFE6FFE1CF4D
:100FC000D9FFFD0EDBCFE9FFFE0EDBCFEAFFEE52CD
:100FD000EF50E66EFB0EDBCFE9FFFC0EDBCFEAFF46
:100FE000EE52E552E750EF6EFD0EDBCFE9FFFE0E4D
:100FF000DBCFEAFFEF50E66EFB0EDBCFE9FFFC0E26
:10100000DBCFEAFFE552E750EF6EFD0EDBCFE9FFE5
:10101000FE0EDBCFEAFF020EE926000EEA22EFCF3A
:1010200014F00C0E145C42E3FD0EDBCFE9FFFE0E64
:10103000DBCFEAFF020EE926000EEA22EF50F40FA2
:10104000E66EFB0EDBCFE9FFFC0EDBCFEAFF020E04
:10105000E926000EEA22E552E750EF6EFB0EDBCFE9
:10106000E9FFFC0EDBCFEAFF070EE926000EEA22BD
:10107000010EEF6E0C0E146EFD0EDBCFE9FFFE0EBF
:10108000DBCFEAFF020EE926000EEA22EF50145CE5
:101090000CE1FB0EDBCFE9FFFC0EDBCFEAFF020E1B
:1010A000E926000EEA220C0EEF6E4BD0FD0EDBCFD0
:1010B000E9FFFE0EDBCFEAFF020EE926000EEA2270
:1010C000EFCF14F00C0E145C3CE2FD0EDBCFE9FF19
:1010D000FE0EDBCFEAFF020EE926000EEA22EF50F9
:1010E000E66EFB0EDBCFE9FFFC0EDBCFEAFF020E64
:1010F000E926000EEA22E552E750EF6EFB0EDBCF49
:10110000E9FFFC0EDBCFEAFF070EE926000EEA221C
:10111000EF6AFD0EDBCFE9FFFE0EDBCFEAFF020E2A
:10112000E926000EEA22EF500CE1FB0EDBCFE9FFCF
:10113000FC0EDBCFEAFF020EE926000EEA220C0EBF
:10114000EF6EE552E7CFD9FF1200D9CFE6FFE1CF2E
:10115000D9FFFD0EDBCFE9FFFE0EDBCFEAFFEE523B
:10116000EF50E66EFB0EDBCFE9FFFC0EDBCFEAFFB4
:10117000EE52E552E750EF6EFD0EDBCFE9FFFE0EBB
:10118000DBCFEAFFEF50E66EFB0EDBCFE9FFFC0E94
:10119000DBCFEAFFE552E750EF6EFD0EDBCFE9FF54
:1011A000FE0EDBCFEAFF070EE926000EEA22EF046F
:1011B00036E1FD0EDBCFE9FFFE0EDBCFEAFF020ECC
:1011C000E926000EEA22EF500C0FE66EFB0EDBCF95
:1011D000E9FFFC0EDBCFEAFF020EE926000EEA2251
:1011E000E552E750EF6E0C0E146EFD0EDBCFE9FFFB
:1011F000FE0EDBCFEAFF020EE926000EEA22EF50D8
:10120000145C0CE1FB0EDBCFE9FFFC0EDBCFEAFF49
:10121000020EE926000EEA220C0EEF6E3FD0FD0E04
:10122000DBCFE9FFFE0EDBCFEAFF070EE926000E5B
:10123000EA22EF5033E1FD0EDBCFE9FFFE0EDBCFFC
:10124000EAFF020EE926000EEA22EF50E66EFB0EE0
:10125000DBCFE9FFFC0EDBCFEAFF020EE926000E32
:10126000EA22E552E750EF6E0C0E146EFD0EDBCF56
:10127000E9FFFE0EDBCFEAFF020EE926000EEA22AE
:10128000EF50145C0BE1FB0EDBCFE9FFFC0EDBCF74
:10129000EAFF020EE926000EEA22EF6AE552E7CFE6
:1012A000D9FF1200D9CFE6FFE1CFD9FFE652DF6ABE
:1012B000FD0EDB040DE1FE0EDB500C0FDF6E0C0E9D
:1012C000146EFE0EDB50145C02E10C0EDF6E16D0C5
:1012D000FD0EDB500BE1FE0EDB50DF6E0C0E146ECC
:1012E000FE0EDB50145C01E1DF6A08D0AA0E146E1A
:1012F000FD0EDB50145C02E1AA0EDF6EDF5000D061
:10130000E552E552E7CFD9FF1200D9CFE6FFE1CF92
:10131000D9FF16EC0FF0D00EE66E5AEC0FF0E55246
:10132000E66A5AEC0FF0E552050EE76EFD0EDBCFD4
:10133000E9FFFE0EDBCFEAFFE750E926000EEA22C6
:10134000EF500F0B146E040EE76EFD0EDBCFE9FFBE
:10135000FE0EDBCFEAFFE750E926000EEA22EF504F
:101360000F0B100DF3501410E66E5AEC0FF0E5520F
:10137000030EE76EFD0EDBCFE9FFFE0EDBCFEAFFCB
:10138000E750E926000EEA22EF500F0B146E020E12
:10139000E76EFD0EDBCFE9FFFE0EDBCFEAFFE75085
:1013A000E926000EEA22EF500F0B100DF350141037
:1013B000E66E5AEC0FF0E552010EE76EFD0EDBCF44
:1013C000E9FFFE0EDBCFEAFFE750E926000EEA2236
:1013D000EF500F0B146EFD0EDBCFE9FFFE0EDBCFDF
:1013E000EAFFEF500F0B100DF3501410E66E5AEC9D
:1013F0000FF0E5522CEC0FF0E552E7CFD9FF1200C9
:10140000D9CFE6FFE1CFD9FF16EC0FF0D00EE66E94
:101410005AEC0FF0E552040EE66E5AEC0FF0E5526E
:10142000010EE76EFD0EDBCFE9FFFE0EDBCFEAFF1C
:10143000E750E926000EEA22EF500F0B146EFD0E66
:10144000DBCFE9FFFE0EDBCFEAFFEF500F0B100DF5
:10145000F3501410E66E5AEC0FF0E552030EE76EEF
:10146000FD0EDBCFE9FFFE0EDBCFEAFFE750E926FA
:10147000000EEA22EF500F0B146E020EE76EFD0E07
:10148000DBCFE9FFFE0EDBCFEAFFE750E926000ED7
:10149000EA22EF500F0B100DF3501410E66E5AECC9
:1014A0000FF0E552050EE76EFD0EDBCFE9FFFE0EF5
:1014B000DBCFEAFFE750E926000EEA22EF500F0BE0
:1014C000146E040EE76EFD0EDBCFE9FFFE0EDBCFE0
:1014D000EAFFE750E926000EEA22EF500F0B100D4D
:1014E000F3501410E66E5AEC0FF0E5522CEC0FF0AE
:1014F000E552E7CFD9FF1200D9CFE6FFE1CFD9FF00
:1015000016EC0FF0D00EE66E5AEC0FF0E552030E1B
:10151000E66E5AEC0FF0E552FE0EDBCFE6FF5AEC1A
:101520000FF0E5522CEC0FF0E552E7CFD9FF120097
:10153000D9CFE6FFE1CFD9FFE652E66AD00EE66EDC
:10154000F2EC0FF0E552E552DF6E7F0EDF14DF6E36
:10155000DFCFE6FFE66AD00EE66E14EC10F0E5523F
:10156000E552E552900EE66E070EE66ED00EE66E80
:1015700014EC10F0E552E552E552E552E552E7CFA2
:10158000D9FF12006C0EE66E030EE66E7AEC06F0E2
:10159000E552E5520301335103016C5D05E06CC374
:0A15A00033F30301010E0C6F12007B
:0615AA00D9CFE6FFE1CFFE
:1015B000D9FF050EE126FE0EDB50080802E2000E00
:1015C00066D0FE0EDBCF45F3DF6A03014551DF5CD9
:1015D0000AE2DF50EA6A3D0FE96E030EEA229AC37F
:1015E000EFFFDF2AF2D7350E4B6F030E4C6FDF6A29
:1015F0000B0EDF5C48E2010EDB6AFE0EDB50F36E81
:10160000010EDBCFF4FFF350F45C15E2DF50EA6A21
:10161000900FE96E030EEA22EF50E66E010EDB50EA
:10162000EA6A350FE96E030EEA22E552E750EF6EE3
:10163000010EDB2AE2D7020EDB6A640EF36E020EA5
:10164000DBCFF4FFF350F45C1CE22DD8030EF36EF5
:10165000F3CFDBFF040EDB6A030EDBCF14F0DB06F7
:10166000040EDBCF15F001E2DB061450151006E086
:10167000050EE66E48EC13F0E552EED7020EDB2ABB
:10168000DCD7DF2AB5D70301466B010E00D0146EFC
:10169000050EE15C02E2E16AE552E16E1450E552AA
:1016A000E7CFD9FF120003013451010A14E0010A07
:1016B00001E03BD04651EA6A4B25E96E4C51EA22E3
:1016C000EF50E66E41D9E5520301462B4551465D88
:1016D00001E3466B2AD04651EA6A4B25E96E4C512C
:1016E000EA22EF50E66E30D9E5520301462B455110
:1016F000465D01E3466B472B000E48234951475D89
:101700004A51485911E3476B486B350E4B1902E1BA
:10171000030E4C1905E13D0E4B6F030E4C6F04D0C8
:10172000350E4B6F030E4C6F00D01200D9CFE6FF81
:10173000E1CFD9FFE652DF6ADF6A03014551DF5C82
:1017400016E2DF50E76EFD0EDBCFE9FFFE0EDBCFCA
:10175000EAFFE750E926000EEA22EF50E66E49D98B
:10176000E552000902E1000E41D0DF2AE6D7DF6A28
:101770004551DF5C38E2DF50E76EFD0EDBCFE9FF5D
:10178000FE0EDBCFEAFFE750E926000EEA22EF501B
:10179000200809E1DF50EA6A350FE96E030EEA22FC
:1017A0009AC3EFFF1ED0DF50E76EFD0EDBCFE9FFDF
:1017B000FE0EDBCFEAFFE750E926000EEA22EF50EB
:1017C000D00FEA6A900FE96E030EEA22EF50E66E40
:1017D000DF50EA6A350FE96E030EEA22E552E75060
:1017E000EF6EDF2AC5D7466B010E00D0E552E552F9
:1017F000E7CFD9FF1200D9CFE6FFE1CFD9FFE652FC
:10180000DF6ADF6A03014551DF5C19E2DF50E76EF2
:10181000FD0EDBCFE9FFFE0EDBCFEAFFE750E92646
:10182000000EEA22EF50E66EDF50EA6A350FE96EED
:10183000030EEA22E552E750EF6EDF2AE3D7466B4C
:10184000E552E552E7CFD9FF1200D9CFE6FFE1CF4D
:10185000D9FFE652DF6AFE0EDBCF14F003014551DB
:10186000D880145402E2000E2DD0FD0EDBCFE6FF2F
:10187000C0D8E552000902E1000E24D0FD0EDB5075
:1018800020080AE1FE0EDB50EA6A350FE96E030E0E
:10189000EA229AC3EFFF14D0FD0EDB50D00FEA6AA4
:1018A000900FE96E030EEA22EF50E66EFE0EDB505B
:1018B000EA6A350FE96E030EEA22E552E750EF6E51
:1018C000010E00D0E552E552E7CFD9FF1200D9CF83
:1018D000E6FFE1CFD9FFFD0EDBCF49F3FE0EDBCFF4
:1018E0004AF3010E0F0B030105E0D8904A33493348
:1018F000E806FBE10301476B486B010E346FE552CC
:10190000E7CFD9FF12000301350E4B6F030E4C6F6A
:10191000346B1200D9CFE6FFE1CFD9FFE652DF6A80
:1019200003014551DF5C0AE2DF50EA6A350FE96ED8
:10193000030EEA229AC3EFFFDF2AF2D7466BE55285
:10194000E552E7CFD9FF1200D9CFE6FFE1CFD9FFAB
:101950008090809280948096FE0EDB50836E03010F
:101960004651030A0DE0010A09E0030A05E0010AF5
:1019700001E008D0808006D0808204D0808402D02C
:10198000808600D0E552E7CFD9FF1200D9CFE6FF1D
:10199000E1CFD9FF020EE126FE0EDB50DF6EFE0E18
:1019A000DBCFE6FFFD0EDB50E552E724DF5C17E2FC
:1019B000DF50EA6A350FE96E030EEA22010EEFCF1F
:1019C000DBFFDB508009E66EDF50EA6A350FE96E17
:1019D000030EEA22E552E750EF6EDF2AE0D7020E4F
:1019E000E15C02E2E16AE552E16EE552E7CFD9FF40
:1019F0001200D9CFE6FFE1CFD9FFE652DF6AFE0E33
:101A0000DB50200803E1010EDF6E0ED0300EF36EC6
:101A1000FE0EDBCFF4FFF350F45C06E3FE0EDB506A
:101A2000390802E3010EDF6EDF5000D0E552E552C7
:101A3000E7CFD9FF1200D9CFE6FFE1CFD9FFE652B9
:101A4000DF6ADF6A03014551DF5C16E2DF50E76EB3
:101A5000FD0EDBCFE9FFFE0EDBCFEAFFE750E92604
:101A6000000EEA22EF50E66EC4DFE552000902E103
:101A7000000E4AD0DF2AE6D7FC0EDB50DF6EFB0EED
:101A8000DBCFE6FFFC0EDB50E552E724DF5C38E2FB
:101A9000DF50E76EFD0EDBCFE9FFFE0EDBCFEAFF86
:101AA000E750E926000EEA22EF50200809E1DF5056
:101AB000EA6A350FE96E030EEA229AC3EFFF1ED0E1
:101AC000DF50E76EFD0EDBCFE9FFFE0EDBCFEAFF56
:101AD000E750E926000EEA22EF50D00FEA6A900F95
:101AE000E96E030EEA22EF50E66EDF50EA6A350F28
:101AF000E96E030EEA22E552E750EF6EDF2ABFD708
:101B00000301466B010E00D0E552E552E7CFD9FF45
:101B10001200D9CFE6FFE1CFD9FFE652FD0EDBCFB1
:101B200049F3FE0EDBCF4AF3010E0F0B030105E074
:101B3000D8904A334933E806FBE10301476B486B11
:101B4000FC0EDB504D6F4E6BDF6A4551DF5C1CE2D3
:101B5000DF50146E156A4D51141802E14E511518DC
:101B600011E0DF50EA6A350FE96E030EEA22EF500A
:101B7000E66EDF50EA6A3D0FE96E030EEA22E55297
:101B8000E750EF6EDF2AE1D73D0E4D25E96E030EDB
:101B90004E21EA6EEF6A010E346FE552E552E7CF4F
:041BA000D9FF120057
:0C1BA400010EE66EE66E130EE66EA8EC75
:101BB00007F0E552E552E5520301606F0301006B47
:101BC000036905690769120003010A0505E1F29E30
:101BD00079D803010A6BF28E03010051010A2EE04D
:101BE000010A01E06ED0570EE66E030EE66E7AEC47
:101BF00006F0E552E552AFD8030101510CE14F0E5A
:101C0000E66E030EE66E96EC0BF0E552E55203012C
:101C1000010E016F12D04F0EE66E030EE66E96ECCB
:101C20000BF0E552E552020EE66E010EE66EC6ECD2
:101C30000CF0E552E5520301016B43D009C3E6FF06
:101C4000F40EE66E010EE66E89EC0DF0E552E552FB
:101C5000E5520301085134E00951030A1FE0010A6B
:101C600015E0030A0BE0010A01E020D003014F2B2D
:101C70004F51390802E2300E4F6F18D00301502B3C
:101C80005051350802E2300E506F10D00301512B35
:101C90005151390802E2300E516F08D00301522B26
:101CA0005251320802E2300E526F00D04F0EE66EF3
:101CB000030EE66E96EC0BF0E552E5520301086B5D
:101CC00000D01200800E03010B150301026F0251B8
:101CD000035D22E0005119E154D84F0EE66E030E69
:101CE000E66E96EC0BF0E552E5520301086B096BCA
:101CF000010E006F400E03010B150301056F200E4E
:101D000003010B150301076F05D068D883EC0CF0B5
:101D10000301006B02C303F300051CE1400E030145
:101D20000B150301046F200E03010B150301066F51
:101D30000451055D05E0010E086F04C305F30AD0E8
:101D40000651075D07E0092B0951030801E2096B01
:101D500006C307F312000F0E03015815300F4F6F23
:101D6000F00E5815E8380F0B300F506F0F0E591545
:101D7000300F516F300E5915E8380F0B300F526F7E
:101D80001200D9CFE6FFE1CFD9FF020EE126DE6ACD
:101D9000DD6ADECF14F0DDCF15F0D890155004E6E3
:101DA000040E145C000E15580FE2DECFE9FFDDCF04
:101DB000EAFF4F0EE926030EEA22300EEF6EDF2A0D
:101DC000010E01E3DB2AE5D7020EE15C02E2E16AE3
:101DD000E552E16EE552E7CFD9FF1200300E030164
:101DE0004F5D146E300E505D100DF35014105F6F88
:101DF000300E515D146E300E525D100DF350141004
:101E0000606F5E0EE66E030EE66E22EC07F0E552A2
:041E1000E552120085
:0C1E1400C76AC78E590EC86E280EC66E35
:101E2000C56A9E96A196948694881200949694987A
:101E300082888286050EE66E91EC13F0E552829858
:101E4000050EE66E91EC13F0E5528296050EE66EF5
:101E500091EC13F0E5521200949694988298050E36
:101E6000E66E91EC13F0E5528286050EE66E91EC7B
:101E700013F0E55282881200D9CFE6FFE1CFD9FFF7
:101E8000E65294969488DF6ADF500A080EE3050E46
:101E9000E66E91EC13F0E5528286050EE66E91EC4B
:101EA00013F0E5528296DF2AEFD7E552E552E7CFED
:101EB000D9FF1200D9CFE6FFE1CFD9FFE6529496C1
:101EC0009498DF6A080EDF5C25E2FE0EDB50800B83
:101ED00002E0010E01D0000EE8B08288E8A08298EE
:101EE000030EE66E91EC13F0E5528286060EE66E66
:101EF00091EC13F0E5528296020EE66E91EC13F02F
:101F0000E552FE0EDBCFF3FFF39EF346F3CFDBFF8C
:101F1000DF2AD8D79488020EE66E91EC13F0E552D2
:101F20008286060EE66E91EC13F0E5528296060E5E
:101F3000E66E91EC13F0E552E552E552E7CFD9FF9A
:101F40001200D9CFE6FFE1CFD9FF020EE126DF6A0A
:101F5000949694989488010EDB6A080EF36E010E35
:101F6000DBCFF4FFF350F45C17E28286060EE66ED8
:101F700091EC13F0E552DF9EDF468250100B01E03A
:101F8000010EDF10DF6E8296060EE66E91EC13F006
:101F9000E552010EDB2AE1D79498FE0EDB0402E144
:101FA000829801D08288020EE66E91EC13F0E55221
:101FB0008286060EE66E91EC13F0E5528296060ECE
:101FC000E66E91EC13F0E552DF50146E020EE15C08
:101FD00003E200D0E16AE552E16E1450E552E7CF2A
:101FE000D9FF1200D9CFE6FFE1CFD9FFE6521EDFBD
:101FF000FE0EDBCFE6FF5EDFE552FD0EDBCFE6FF38
:1020000059DFE55213DFFE0EDB28E66E53DFE552A3
:10201000E66A97DFE552DF6E1FDFDF5000D0E55242
:10202000E552E7CFD9FF1200D9CFE6FFE1CFD9FFC4
:10203000FDDEFE0EDBCFE6FF3DDFE552FD0EDBCF22
:10204000E6FF38DFE552FC0EDBCFE6FF33DFE5527B
:0A20500003DFE552E7CFD9FF1200CD
:06205A00DACFE4FFE2CF43
:10206000DAFFE9CFE4FFEACFE4FFF6CFE4FFF7CFF2
:10207000E4FFF5CFE4FFF3CFE4FFF4CFE4FFFACFC2
:10208000E4FF00EE00F0140EE80403E3EECFE4FFFB
:10209000FBD700EE14F0080EE80403E3EECFE4FFF4
:1020A000FBD7E652F29403017D2B000E7E237F2B9B
:1020B0008023812B82237751781107E005D078C3E4
:1020C000FAFF03017751F96EFADF75C3E6FF76C3B5
:1020D000E6FFFAEC12F0E552E552E55200EE1BF095
:1020E000080EE80403E3E5CFEDFFFBD700EE13F0A5
:1020F000140EE80403E3E5CFEDFFFBD7E5CFFAFFCD
:10210000E5CFF4FFE5CFF3FFE5CFF5FFE5CFF7FF30
:10211000E5CFF6FFE5CFEAFFE5CFE9FFE5CFDAFF50
:102120001100DACFE4FFE2CFDAFFE9CFE4FFEACF34
:10213000E4FFF6CFE4FFF7CFE4FFF5CFE4FFF3CF02
:10214000E4FFF4CFE4FFFACFE4FF00EE00F0140E5A
:10215000E80403E3EECFE4FFFBD700EE14F0080E33
:10216000E80403E3EECFE4FFFBD7E6529E9079C389
:10217000E6FF7AC3E6FFDEEC12F0E552E55203011A
:102180007B517C1107E005D07CC3FAFF03017B5132
:10219000F96EFADFE55200EE1BF0080EE80403E3E7
:1021A000E5CFEDFFFBD700EE13F0140EE80403E3D8
:1021B000E5CFEDFFFBD7E5CFFAFFE5CFF4FFE5CFA5
:1021C000F3FFE5CFF5FFE5CFF7FFE5CFF6FFE5CF6E
:1021D000EAFFE5CFE9FFE5CFDAFF1100D9CFE6FF4F
:1021E000E1CFD9FF9F0EE66E16EC13F0E552FD0E1F
:1021F000DBCF75F3FE0EDBCF76F3FB0EDBCF77F391
:10220000FC0EDBCF78F3FD0EDBCFE6FFFE0EDBCF5F
:10221000E6FFFAEC12F0E552E552E552E7CFD9FFBE
:102220001200D9CFE6FFE1CFD9FFC50EE66E82ECF2
:1022300012F0E552FD0EDBCFE6FFFE0EDBCFE6FF30
:10224000DEEC12F0E552E5529F80FD0EDBCF79F314
:10225000FE0EDBCF7AF3FB0EDBCF7BF3FC0EDBCF86
:0A2260007CF3E552E7CFD9FF12002E
:06226A00FE0EE66EC1EC61
:1022700012F0E552F290936803010A6B81CF0BF3E1
:102280001200DACFE4FFE2CFDAFFE9CFE4FFEACFD2
:10229000E4FFF6CFE4FFF7CFE4FFF5CFE4FFF3CFA1
:1022A000E4FFF4CFE4FFFACFE4FF00EE00F0140EF9
:1022B000E80403E3EECFE4FFFBD700EE14F0080ED2
:1022C000E80403E3EECFE4FFFBD7E6520301010E7F
:1022D0000A6F81CF0BF3050EE66E91EC13F0E55219
:1022E000F290E55200EE1BF0080EE80403E3E5CFA0
:1022F000EDFFFBD700EE13F0140EE80403E3E5CF87
:10230000EDFFFBD7E5CFFAFFE5CFF4FFE5CFF3FF15
:10231000E5CFF5FFE5CFF7FFE5CFF6FFE5CFEAFF25
:0A232000E5CFE9FFE5CFDAFF110079
:06232A00D9CFE6FFE1CF70
:10233000D9FF040EE126DF6A030EDB6A14EC00F01D
:1023400035EC11F098EC0AF0040EE66ED5EC0AF0CC
:10235000E552000EE66EE66AEF0EE66ED80EE66E09
:10236000EEEC10F0E552E552E552E552A60EE66EAF
:10237000160EE66E770EE66EEC0EE66E11EC11F0C0
:10238000E552E552E552E552D2EC0DF011EC00F0C9
:10239000F28E8C0EE66E030EE66E96EC0BF0E552B6
:1023A000E5520301FA0E7D5D000E7E5907E3E4EC71
:1023B0000DF087EC13F003017D6B7E6BF2D7040EFA
:1023C000E15C02E2E16AE552E16EE552E7CFD9FF56
:0223D0001200F9
:0E23D200500EF66E000EF76E000EF86E030150
:1023E0000900F550A06F0900F550A16F03E1A06747
:1023F00001D03DD00900F5509B6F0900F5509C6F4E
:102400000900F5509D6F09000900F550E96E0900BB
:10241000F550EA6E090009000900F5509E6F0900A9
:10242000F5509F6F09000900F6CFA2F3F7CFA3F391
:10243000F8CFA4F39BC3F6FF9CC3F7FF9DC3F8FF3F
:1024400003019E5302E19F5307E00900F550EE6E31
:102450009E07F8E29F07F9D7A2C3F6FFA3C3F7FFD1
:10246000A4C3F8FF0301A007000EA15BBFD71200B1
:10247000446563004E6F76004F63740053657000CF
:10248000417567004A756C004A756E004D617900B0
:10249000417072004D617200466562004A616E00D3
:1024A0005361740046726900546875005765640092
:0C24B000547565004D6F6E0053756E0092
:0424BC00056A046A3F
:1024C000036A026A200EE76ED89006360736083691
:1024D000093602360336043605360B50025C0C50C2
:1024E00003580D5004580E50055809E30B50025E76
:1024F0000C50035A0D50045A0E50055A062AE72E66
:04250000E4D712000A
:0C250400D9CFE6FFDACFE6FFE1CFD9FF28
:10251000E2CFDAFFFD0EDB507E0BCD6EFD0EDBACA5
:1025200002D0CD8E01D0CD9ECF6ACE6A9E90DBAE1A
:1025300002D09D8001D09D90CD80E552E5CFDAFF9D
:06254000E7CFD9FF1200F5
:0A25460008C012F008500D02F4CF97
:1025500007F0F3CF06F009500E02F4CF09F0F3CFE5
:1025600008F00D02F3500726F4500822E86A092209
:1025700012500E02F3500726F4500822E86A09228E
:02258000000C4D
:0E258200D9CFE6FFDACFE6FFE1CFD9FFE2CFF7
:10259000DAFFE6528150DF6EFD0EDBA002D0F18E35
:1025A00001D0F19EDBAE02D0F28601D0F296E55268
:0C25B000E552E5CFDAFFE7CFD9FF1200BB
:0425BC00D9CFE6FF8E
:1025C000DACFE6FFE1CFD9FFE2CFDAFFE652E652FB
:1025D000FC0EDBCFDEFFDBCFDDFF010EDB50CF6E6D
:1025E000DF50CE6EE552E552E552E5CFDAFFE7CF98
:0425F000D9FF1200FD
:0C25F400D9CFE6FFDACFE6FFE1CFD9FF38
:10260000E2CFDAFFE652E652FC0EDBCFDEFFDBCF95
:10261000DDFF010EDB50D76EDF50D66EE552E5527E
:0C262000E552E5CFDAFFE7CFD9FF12004A
:04262C00D9CFE6FF1D
:10263000DACFE6FFE1CFD9FFE2CFDAFFFD0EDB50C4
:102640007F0BD56ED76AD66AF294FD0EDBAE02D050
:10265000F28A01D0F29AD58EE552E5CFDAFFE7CFC4
:04266000D9FF12008C
:0C266400056A046A100EE76ED890083674
:102670000936043605360D50045C0E50055805E346
:102680000D50045E0E50055A082AE72EF0D71200AE
:10269000FF0EE3501C6E480E01D04C0EE76EE72E85
:1026A000FED7E76AE72EFED71C2EF7D700001200F0
:1026B000000EF36E00EE00F0060E01D81200EA6084
:1026C00002D0EE6AFCD7F350E9601200EE6AFCD744
:1026D00010EE80F020EE80F0F86A019CE9EC11F039
:0C26E00003EC00F095EC11F0FBD71200A9
:0426EC00056A080E65
:1026F000E76ED890093605360E50055C02E3056E8C
:08270000092AE72EF7D71200A9
:082708000301A66B120003019E
:10271000A60503E1A66B849003D0010EA66F84800A
:022720001200A5
:0E272200FF0EE350E84E1200000000D000D081
:0827300000D0E82EFAD71200D8
:08273800000000000000000099
:02274000000097
:0E274200000000000000000000000000000089
:0D275000000000000000000000000000007C
:03275D0000000079
:0B27600000000000000000000000006E
:05276B0000B824B424B5
:10277000B024AC24A824A424A0249C249824942429
:1027800090248C248824842480247C247824742419
:03279000702400B2
:0D2793004944454F4E494353003336323719
:0B27A0003F065B4F666D7D077F6F00FA
:0527AB00000000000029
:1027B0000000000000000000000001277203271243
:0127C0001305
:020000040030CA
:0100010002FC
:010002001BE2
:0100030012EA
:010005008179
:010006008178
:010008000FE8
:01000900C036
:01000A000FE6
:01000B00E014
:01000C000FE4
:01000D0040B2
:00000001FF
